{
  "_format": "hh-sol-artifact-1",
  "contractName": "AuthManager",
  "sourceName": "contracts/AuthManager.sol",
  "abi": [
    {
      "inputs": [],
      "stateMutability": "nonpayable",
      "type": "constructor"
    },
    {
      "inputs": [
        {
          "internalType": "address",
          "name": "_user",
          "type": "address"
        }
      ],
      "name": "authorizeUser",
      "outputs": [],
      "stateMutability": "nonpayable",
      "type": "function"
    },
    {
      "inputs": [
        {
          "internalType": "address",
          "name": "",
          "type": "address"
        }
      ],
      "name": "authorizedUsers",
      "outputs": [
        {
          "internalType": "bool",
          "name": "",
          "type": "bool"
        }
      ],
      "stateMutability": "view",
      "type": "function"
    },
    {
      "inputs": [
        {
          "internalType": "address",
          "name": "_user",
          "type": "address"
        }
      ],
      "name": "deauthorizeUser",
      "outputs": [],
      "stateMutability": "nonpayable",
      "type": "function"
    },
    {
      "inputs": [
        {
          "internalType": "address",
          "name": "_user",
          "type": "address"
        }
      ],
      "name": "isUserAuthorized",
      "outputs": [
        {
          "internalType": "bool",
          "name": "",
          "type": "bool"
        }
      ],
      "stateMutability": "view",
      "type": "function"
    },
    {
      "inputs": [],
      "name": "owner",
      "outputs": [
        {
          "internalType": "address",
          "name": "",
          "type": "address"
        }
      ],
      "stateMutability": "view",
      "type": "function"
    }
  ],
  "bytecode": "0x608060405234801561001057600080fd5b5033600160006101000a81548173ffffffffffffffffffffffffffffffffffffffff021916908373ffffffffffffffffffffffffffffffffffffffff160217905550610535806100616000396000f3fe608060405234801561001057600080fd5b50600436106100575760003560e01c80631828983a1461005c5780635f121b521461008c57806367c2a360146100a8578063894e5f2d146100c45780638da5cb5b146100f4575b600080fd5b61007660048036038101906100719190610396565b610112565b604051610083919061045e565b60405180910390f35b6100a660048036038101906100a19190610396565b610132565b005b6100c260048036038101906100bd9190610396565b61021c565b005b6100de60048036038101906100d99190610396565b610306565b6040516100eb919061045e565b60405180910390f35b6100fc61035b565b6040516101099190610443565b60405180910390f35b60006020528060005260406000206000915054906101000a900460ff1681565b600160009054906101000a900473ffffffffffffffffffffffffffffffffffffffff1673ffffffffffffffffffffffffffffffffffffffff163373ffffffffffffffffffffffffffffffffffffffff16146101c2576040517f08c379a00000000000000000000000000000000000000000000000000000000081526004016101b990610479565b60405180910390fd5b60008060008373ffffffffffffffffffffffffffffffffffffffff1673ffffffffffffffffffffffffffffffffffffffff16815260200190815260200160002060006101000a81548160ff02191690831515021790555050565b600160009054906101000a900473ffffffffffffffffffffffffffffffffffffffff1673ffffffffffffffffffffffffffffffffffffffff163373ffffffffffffffffffffffffffffffffffffffff16146102ac576040517f08c379a00000000000000000000000000000000000000000000000000000000081526004016102a390610479565b60405180910390fd5b60016000808373ffffffffffffffffffffffffffffffffffffffff1673ffffffffffffffffffffffffffffffffffffffff16815260200190815260200160002060006101000a81548160ff02191690831515021790555050565b60008060008373ffffffffffffffffffffffffffffffffffffffff1673ffffffffffffffffffffffffffffffffffffffff16815260200190815260200160002060009054906101000a900460ff169050919050565b600160009054906101000a900473ffffffffffffffffffffffffffffffffffffffff1681565b600081359050610390816104e8565b92915050565b6000602082840312156103a857600080fd5b60006103b684828501610381565b91505092915050565b6103c8816104aa565b82525050565b6103d7816104bc565b82525050565b60006103ea602f83610499565b91507f736f6c6f20656c2070726f706965746172696f207075656465206c6c616d617260008301527f206120657374612066756e63696f6e00000000000000000000000000000000006020830152604082019050919050565b600060208201905061045860008301846103bf565b92915050565b600060208201905061047360008301846103ce565b92915050565b60006020820190508181036000830152610492816103dd565b9050919050565b600082825260208201905092915050565b60006104b5826104c8565b9050919050565b60008115159050919050565b600073ffffffffffffffffffffffffffffffffffffffff82169050919050565b6104f1816104aa565b81146104fc57600080fd5b5056fea2646970667358221220c6289adf49204d251282d88334beb2493afa553804556053d9465bf6a348043a64736f6c63430008000033",
  "linkReferences": {},
  "deployedLinkReferences": {}
}