{
  "_format": "hh-sol-artifact-1",
  "contractName": "UserManager",
  "sourceName": "contracts/UserManager.sol",
  "abi": [
    {
      "inputs": [],
      "stateMutability": "nonpayable",
      "type": "constructor"
    },
    {
      "inputs": [
        {
          "internalType": "address",
          "name": "_userAddress",
          "type": "address"
        }
      ],
      "name": "deleteUser",
      "outputs": [],
      "stateMutability": "nonpayable",
      "type": "function"
    },
    {
      "inputs": [],
      "name": "getUsers",
      "outputs": [
        {
          "internalType": "address[]",
          "name": "",
          "type": "address[]"
        },
        {
          "internalType": "string[]",
          "name": "",
          "type": "string[]"
        }
      ],
      "stateMutability": "view",
      "type": "function"
    },
    {
      "inputs": [
        {
          "internalType": "address",
          "name": "_userAddress",
          "type": "address"
        }
      ],
      "name": "isUserRegistered",
      "outputs": [
        {
          "internalType": "bool",
          "name": "",
          "type": "bool"
        }
      ],
      "stateMutability": "view",
      "type": "function"
    },
    {
      "inputs": [],
      "name": "owner",
      "outputs": [
        {
          "internalType": "address",
          "name": "",
          "type": "address"
        }
      ],
      "stateMutability": "view",
      "type": "function"
    },
    {
      "inputs": [
        {
          "internalType": "string",
          "name": "_name",
          "type": "string"
        },
        {
          "internalType": "address",
          "name": "_userAddress",
          "type": "address"
        }
      ],
      "name": "registerUser",
      "outputs": [],
      "stateMutability": "nonpayable",
      "type": "function"
    },
    {
      "inputs": [
        {
          "internalType": "address",
          "name": "",
          "type": "address"
        }
      ],
      "name": "users",
      "outputs": [
        {
          "internalType": "string",
          "name": "name",
          "type": "string"
        },
        {
          "internalType": "address",
          "name": "userAddress",
          "type": "address"
        }
      ],
      "stateMutability": "view",
      "type": "function"
    }
  ],
  "bytecode": "0x608060405234801561001057600080fd5b5033600260006101000a81548173ffffffffffffffffffffffffffffffffffffffff021916908373ffffffffffffffffffffffffffffffffffffffff1602179055506114cd806100616000396000f3fe608060405234801561001057600080fd5b50600436106100615760003560e01c8062ce8e3e146100665780630e54b87214610085578063163f7522146100a15780635c60f226146100d15780638da5cb5b146100ed578063a87430ba1461010b575b600080fd5b61006e61013c565b60405161007c9291906110c7565b60405180910390f35b61009f600480360381019061009a9190610dfa565b6103e6565b005b6100bb60048036038101906100b69190610dd1565b6105d1565b6040516100c891906110fe565b60405180910390f35b6100eb60048036038101906100e69190610dd1565b61066b565b005b6100f5610af2565b60405161010291906110ac565b60405180910390f35b61012560048036038101906101209190610dd1565b610b18565b604051610133929190611119565b60405180910390f35b606080600060018054905067ffffffffffffffff811115610186577f4e487b7100000000000000000000000000000000000000000000000000000000600052604160045260246000fd5b6040519080825280602002602001820160405280156101b957816020015b60608152602001906001900390816101a45790505b50905060005b6001805490508110156103515760008060018381548110610209577f4e487b7100000000000000000000000000000000000000000000000000000000600052603260045260246000fd5b9060005260206000200160009054906101000a900473ffffffffffffffffffffffffffffffffffffffff1673ffffffffffffffffffffffffffffffffffffffff1673ffffffffffffffffffffffffffffffffffffffff168152602001908152602001600020600001805461027c90611367565b80601f01602080910402602001604051908101604052809291908181526020018280546102a890611367565b80156102f55780601f106102ca576101008083540402835291602001916102f5565b820191906000526020600020905b8154815290600101906020018083116102d857829003601f168201915b5050505050828281518110610333577f4e487b7100000000000000000000000000000000000000000000000000000000600052603260045260246000fd5b6020026020010181905250808061034990611399565b9150506101bf565b50600181818054806020026020016040519081016040528092919081815260200182805480156103d657602002820191906000526020600020905b8160009054906101000a900473ffffffffffffffffffffffffffffffffffffffff1673ffffffffffffffffffffffffffffffffffffffff168152602001906001019080831161038c575b5050505050915092509250509091565b600082511161042a576040517f08c379a000000000000000000000000000000000000000000000000000000000815260040161042190611189565b60405180910390fd5b600073ffffffffffffffffffffffffffffffffffffffff168173ffffffffffffffffffffffffffffffffffffffff16141561049a576040517f08c379a000000000000000000000000000000000000000000000000000000000815260040161049190611149565b60405180910390fd5b60405180604001604052808381526020018273ffffffffffffffffffffffffffffffffffffffff168152506000808373ffffffffffffffffffffffffffffffffffffffff1673ffffffffffffffffffffffffffffffffffffffff168152602001908152602001600020600082015181600001908051906020019061051f929190610be4565b5060208201518160010160006101000a81548173ffffffffffffffffffffffffffffffffffffffff021916908373ffffffffffffffffffffffffffffffffffffffff1602179055509050506001819080600181540180825580915050600190039060005260206000200160009091909190916101000a81548173ffffffffffffffffffffffffffffffffffffffff021916908373ffffffffffffffffffffffffffffffffffffffff1602179055505050565b60008073ffffffffffffffffffffffffffffffffffffffff166000808473ffffffffffffffffffffffffffffffffffffffff1673ffffffffffffffffffffffffffffffffffffffff16815260200190815260200160002060010160009054906101000a900473ffffffffffffffffffffffffffffffffffffffff1673ffffffffffffffffffffffffffffffffffffffff1614159050919050565b600073ffffffffffffffffffffffffffffffffffffffff166000808373ffffffffffffffffffffffffffffffffffffffff1673ffffffffffffffffffffffffffffffffffffffff16815260200190815260200160002060010160009054906101000a900473ffffffffffffffffffffffffffffffffffffffff1673ffffffffffffffffffffffffffffffffffffffff16141561073c576040517f08c379a000000000000000000000000000000000000000000000000000000000815260040161073390611169565b60405180910390fd5b6000600360008373ffffffffffffffffffffffffffffffffffffffff1673ffffffffffffffffffffffffffffffffffffffff1681526020019081526020016000205490506000600180808054905061079491906112a9565b815481106107cb577f4e487b7100000000000000000000000000000000000000000000000000000000600052603260045260246000fd5b9060005260206000200160009054906101000a900473ffffffffffffffffffffffffffffffffffffffff1690506000808273ffffffffffffffffffffffffffffffffffffffff1673ffffffffffffffffffffffffffffffffffffffff1681526020019081526020016000206000808573ffffffffffffffffffffffffffffffffffffffff1673ffffffffffffffffffffffffffffffffffffffff168152602001908152602001600020600082018160000190805461088890611367565b610893929190610c6a565b506001820160009054906101000a900473ffffffffffffffffffffffffffffffffffffffff168160010160006101000a81548173ffffffffffffffffffffffffffffffffffffffff021916908373ffffffffffffffffffffffffffffffffffffffff1602179055509050508060018381548110610939577f4e487b7100000000000000000000000000000000000000000000000000000000600052603260045260246000fd5b9060005260206000200160006101000a81548173ffffffffffffffffffffffffffffffffffffffff021916908373ffffffffffffffffffffffffffffffffffffffff16021790555081600360008373ffffffffffffffffffffffffffffffffffffffff1673ffffffffffffffffffffffffffffffffffffffff1681526020019081526020016000208190555060018054806109fd577f4e487b7100000000000000000000000000000000000000000000000000000000600052603160045260246000fd5b6001900381819060005260206000200160006101000a81549073ffffffffffffffffffffffffffffffffffffffff021916905590556000808473ffffffffffffffffffffffffffffffffffffffff1673ffffffffffffffffffffffffffffffffffffffff16815260200190815260200160002060008082016000610a819190610cf7565b6001820160006101000a81549073ffffffffffffffffffffffffffffffffffffffff02191690555050600360008473ffffffffffffffffffffffffffffffffffffffff1673ffffffffffffffffffffffffffffffffffffffff16815260200190815260200160002060009055505050565b600260009054906101000a900473ffffffffffffffffffffffffffffffffffffffff1681565b6000602052806000526040600020600091509050806000018054610b3b90611367565b80601f0160208091040260200160405190810160405280929190818152602001828054610b6790611367565b8015610bb45780601f10610b8957610100808354040283529160200191610bb4565b820191906000526020600020905b815481529060010190602001808311610b9757829003601f168201915b5050505050908060010160009054906101000a900473ffffffffffffffffffffffffffffffffffffffff16905082565b828054610bf090611367565b90600052602060002090601f016020900481019282610c125760008555610c59565b82601f10610c2b57805160ff1916838001178555610c59565b82800160010185558215610c59579182015b82811115610c58578251825591602001919060010190610c3d565b5b509050610c669190610d37565b5090565b828054610c7690611367565b90600052602060002090601f016020900481019282610c985760008555610ce6565b82601f10610ca95780548555610ce6565b82800160010185558215610ce657600052602060002091601f016020900482015b82811115610ce5578254825591600101919060010190610cca565b5b509050610cf39190610d37565b5090565b508054610d0390611367565b6000825580601f10610d155750610d34565b601f016020900490600052602060002090810190610d339190610d37565b5b50565b5b80821115610d50576000816000905550600101610d38565b5090565b6000610d67610d62846111da565b6111a9565b905082815260208101848484011115610d7f57600080fd5b610d8a848285611325565b509392505050565b600081359050610da181611480565b92915050565b600082601f830112610db857600080fd5b8135610dc8848260208601610d54565b91505092915050565b600060208284031215610de357600080fd5b6000610df184828501610d92565b91505092915050565b60008060408385031215610e0d57600080fd5b600083013567ffffffffffffffff811115610e2757600080fd5b610e3385828601610da7565b9250506020610e4485828601610d92565b9150509250929050565b6000610e5a8383610e7a565b60208301905092915050565b6000610e728383610f7a565b905092915050565b610e83816112dd565b82525050565b610e92816112dd565b82525050565b6000610ea38261122a565b610ead8185611265565b9350610eb88361120a565b8060005b83811015610ee9578151610ed08882610e4e565b9750610edb8361124b565b925050600181019050610ebc565b5085935050505092915050565b6000610f0182611235565b610f0b8185611276565b935083602082028501610f1d8561121a565b8060005b85811015610f595784840389528151610f3a8582610e66565b9450610f4583611258565b925060208a01995050600181019050610f21565b50829750879550505050505092915050565b610f74816112ef565b82525050565b6000610f8582611240565b610f8f8185611287565b9350610f9f818560208601611334565b610fa88161146f565b840191505092915050565b6000610fbe82611240565b610fc88185611298565b9350610fd8818560208601611334565b610fe18161146f565b840191505092915050565b6000610ff9601d83611298565b91507f646972656363696f6e206465207573756172696f20696e76616c6964610000006000830152602082019050919050565b6000611039601483611298565b91507f456c207573756172696f206e6f206578697374650000000000000000000000006000830152602082019050919050565b6000611079601983611298565b91507f5469656e652071756520686162657220756e206e6f6d627265000000000000006000830152602082019050919050565b60006020820190506110c16000830184610e89565b92915050565b600060408201905081810360008301526110e18185610e98565b905081810360208301526110f58184610ef6565b90509392505050565b60006020820190506111136000830184610f6b565b92915050565b600060408201905081810360008301526111338185610fb3565b90506111426020830184610e89565b9392505050565b6000602082019050818103600083015261116281610fec565b9050919050565b600060208201905081810360008301526111828161102c565b9050919050565b600060208201905081810360008301526111a28161106c565b9050919050565b6000604051905081810181811067ffffffffffffffff821117156111d0576111cf611440565b5b8060405250919050565b600067ffffffffffffffff8211156111f5576111f4611440565b5b601f19601f8301169050602081019050919050565b6000819050602082019050919050565b6000819050602082019050919050565b600081519050919050565b600081519050919050565b600081519050919050565b6000602082019050919050565b6000602082019050919050565b600082825260208201905092915050565b600082825260208201905092915050565b600082825260208201905092915050565b600082825260208201905092915050565b60006112b48261131b565b91506112bf8361131b565b9250828210156112d2576112d16113e2565b5b828203905092915050565b60006112e8826112fb565b9050919050565b60008115159050919050565b600073ffffffffffffffffffffffffffffffffffffffff82169050919050565b6000819050919050565b82818337600083830152505050565b60005b83811015611352578082015181840152602081019050611337565b83811115611361576000848401525b50505050565b6000600282049050600182168061137f57607f821691505b6020821081141561139357611392611411565b5b50919050565b60006113a48261131b565b91507fffffffffffffffffffffffffffffffffffffffffffffffffffffffffffffffff8214156113d7576113d66113e2565b5b600182019050919050565b7f4e487b7100000000000000000000000000000000000000000000000000000000600052601160045260246000fd5b7f4e487b7100000000000000000000000000000000000000000000000000000000600052602260045260246000fd5b7f4e487b7100000000000000000000000000000000000000000000000000000000600052604160045260246000fd5b6000601f19601f8301169050919050565b611489816112dd565b811461149457600080fd5b5056fea26469706673582212208bd2b276646e5f9aac306d12b582b644a5282f6401242ac234096cc9a03fc5a664736f6c63430008000033",
  "linkReferences": {},
  "deployedLinkReferences": {}
}