{
  "_format": "hh-sol-artifact-1",
  "contractName": "TaskManager",
  "sourceName": "contracts/TaskManager.sol",
  "abi": [
    {
      "inputs": [
        {
          "internalType": "address",
          "name": "_authManagerAddress",
          "type": "address"
        }
      ],
      "stateMutability": "nonpayable",
      "type": "constructor"
    },
    {
      "inputs": [
        {
          "internalType": "string",
          "name": "_title",
          "type": "string"
        },
        {
          "internalType": "string",
          "name": "_description",
          "type": "string"
        },
        {
          "internalType": "uint256",
          "name": "_dueDate",
          "type": "uint256"
        },
        {
          "internalType": "address",
          "name": "_assignedTo",
          "type": "address"
        }
      ],
      "name": "createTask",
      "outputs": [],
      "stateMutability": "nonpayable",
      "type": "function"
    },
    {
      "inputs": [],
      "name": "getTasks",
      "outputs": [
        {
          "components": [
            {
              "internalType": "string",
              "name": "title",
              "type": "string"
            },
            {
              "internalType": "string",
              "name": "description",
              "type": "string"
            },
            {
              "internalType": "uint256",
              "name": "dueDate",
              "type": "uint256"
            },
            {
              "internalType": "address",
              "name": "assignedTo",
              "type": "address"
            },
            {
              "internalType": "bool",
              "name": "completed",
              "type": "bool"
            }
          ],
          "internalType": "struct TaskManager.Task[]",
          "name": "",
          "type": "tuple[]"
        }
      ],
      "stateMutability": "view",
      "type": "function"
    },
    {
      "inputs": [
        {
          "internalType": "uint256",
          "name": "_taskIndex",
          "type": "uint256"
        }
      ],
      "name": "markTaskCompleted",
      "outputs": [],
      "stateMutability": "nonpayable",
      "type": "function"
    },
    {
      "inputs": [],
      "name": "owner",
      "outputs": [
        {
          "internalType": "address",
          "name": "",
          "type": "address"
        }
      ],
      "stateMutability": "view",
      "type": "function"
    },
    {
      "inputs": [
        {
          "internalType": "uint256",
          "name": "",
          "type": "uint256"
        }
      ],
      "name": "tasks",
      "outputs": [
        {
          "internalType": "string",
          "name": "title",
          "type": "string"
        },
        {
          "internalType": "string",
          "name": "description",
          "type": "string"
        },
        {
          "internalType": "uint256",
          "name": "dueDate",
          "type": "uint256"
        },
        {
          "internalType": "address",
          "name": "assignedTo",
          "type": "address"
        },
        {
          "internalType": "bool",
          "name": "completed",
          "type": "bool"
        }
      ],
      "stateMutability": "view",
      "type": "function"
    }
  ],
  "bytecode": "0x608060405234801561001057600080fd5b50604051611000380380611000833981810160405281019061003291906100cf565b33600160006101000a81548173ffffffffffffffffffffffffffffffffffffffff021916908373ffffffffffffffffffffffffffffffffffffffff16021790555080600260006101000a81548173ffffffffffffffffffffffffffffffffffffffff021916908373ffffffffffffffffffffffffffffffffffffffff16021790555050610141565b6000815190506100c98161012a565b92915050565b6000602082840312156100e157600080fd5b60006100ef848285016100ba565b91505092915050565b60006101038261010a565b9050919050565b600073ffffffffffffffffffffffffffffffffffffffff82169050919050565b610133816100f8565b811461013e57600080fd5b50565b610eb0806101506000396000f3fe608060405234801561001057600080fd5b50600436106100565760003560e01c80620b2bda1461005b57806304a87e38146100775780631a55cc48146100955780638d977672146100b15780638da5cb5b146100e5575b600080fd5b61007560048036038101906100709190610924565b610103565b005b61007f61016f565b60405161008c9190610ba0565b60405180910390f35b6100af60048036038101906100aa9190610891565b61036d565b005b6100cb60048036038101906100c69190610924565b610575565b6040516100dc959493929190610bc2565b60405180910390f35b6100ed6106f8565b6040516100fa9190610b85565b60405180910390f35b600080828154811061013e577f4e487b7100000000000000000000000000000000000000000000000000000000600052603260045260246000fd5b9060005260206000209060040201905060018160030160146101000a81548160ff0219169083151502179055505050565b60606000805480602002602001604051908101604052809291908181526020016000905b8282101561036457838290600052602060002090600402016040518060a00160405290816000820180546101c690610d94565b80601f01602080910402602001604051908101604052809291908181526020018280546101f290610d94565b801561023f5780601f106102145761010080835404028352916020019161023f565b820191906000526020600020905b81548152906001019060200180831161022257829003601f168201915b5050505050815260200160018201805461025890610d94565b80601f016020809104026020016040519081016040528092919081815260200182805461028490610d94565b80156102d15780601f106102a6576101008083540402835291602001916102d1565b820191906000526020600020905b8154815290600101906020018083116102b457829003601f168201915b50505050508152602001600282015481526020016003820160009054906101000a900473ffffffffffffffffffffffffffffffffffffffff1673ffffffffffffffffffffffffffffffffffffffff1673ffffffffffffffffffffffffffffffffffffffff1681526020016003820160149054906101000a900460ff16151515158152505081526020019060010190610193565b50505050905090565b600260009054906101000a900473ffffffffffffffffffffffffffffffffffffffff1673ffffffffffffffffffffffffffffffffffffffff1663894e5f2d336040518263ffffffff1660e01b81526004016103c89190610b85565b60206040518083038186803b1580156103e057600080fd5b505afa1580156103f4573d6000803e3d6000fd5b505050506040513d601f19601f820116820180604052508101906104189190610868565b610457576040517f08c379a000000000000000000000000000000000000000000000000000000000815260040161044e90610c23565b60405180910390fd5b60006040518060a001604052808681526020018581526020018481526020018373ffffffffffffffffffffffffffffffffffffffff16815260200160001515815250908060018154018082558091505060019003906000526020600020906004020160009091909190915060008201518160000190805190602001906104de92919061071e565b5060208201518160010190805190602001906104fb92919061071e565b506040820151816002015560608201518160030160006101000a81548173ffffffffffffffffffffffffffffffffffffffff021916908373ffffffffffffffffffffffffffffffffffffffff16021790555060808201518160030160146101000a81548160ff021916908315150217905550505050505050565b6000818154811061058557600080fd5b90600052602060002090600402016000915090508060000180546105a890610d94565b80601f01602080910402602001604051908101604052809291908181526020018280546105d490610d94565b80156106215780601f106105f657610100808354040283529160200191610621565b820191906000526020600020905b81548152906001019060200180831161060457829003601f168201915b50505050509080600101805461063690610d94565b80601f016020809104026020016040519081016040528092919081815260200182805461066290610d94565b80156106af5780601f10610684576101008083540402835291602001916106af565b820191906000526020600020905b81548152906001019060200180831161069257829003601f168201915b5050505050908060020154908060030160009054906101000a900473ffffffffffffffffffffffffffffffffffffffff16908060030160149054906101000a900460ff16905085565b600160009054906101000a900473ffffffffffffffffffffffffffffffffffffffff1681565b82805461072a90610d94565b90600052602060002090601f01602090048101928261074c5760008555610793565b82601f1061076557805160ff1916838001178555610793565b82800160010185558215610793579182015b82811115610792578251825591602001919060010190610777565b5b5090506107a091906107a4565b5090565b5b808211156107bd5760008160009055506001016107a5565b5090565b60006107d46107cf84610c74565b610c43565b9050828152602081018484840111156107ec57600080fd5b6107f7848285610d52565b509392505050565b60008135905061080e81610e35565b92915050565b60008151905061082381610e4c565b92915050565b600082601f83011261083a57600080fd5b813561084a8482602086016107c1565b91505092915050565b60008135905061086281610e63565b92915050565b60006020828403121561087a57600080fd5b600061088884828501610814565b91505092915050565b600080600080608085870312156108a757600080fd5b600085013567ffffffffffffffff8111156108c157600080fd5b6108cd87828801610829565b945050602085013567ffffffffffffffff8111156108ea57600080fd5b6108f687828801610829565b935050604061090787828801610853565b9250506060610918878288016107ff565b91505092959194509250565b60006020828403121561093657600080fd5b600061094484828501610853565b91505092915050565b60006109598383610aea565b905092915050565b61096a81610d0a565b82525050565b61097981610d0a565b82525050565b600061098a82610cb4565b6109948185610cd7565b9350836020820285016109a685610ca4565b8060005b858110156109e257848403895281516109c3858261094d565b94506109ce83610cca565b925060208a019950506001810190506109aa565b50829750879550505050505092915050565b6109fd81610d1c565b82525050565b610a0c81610d1c565b82525050565b6000610a1d82610cbf565b610a278185610ce8565b9350610a37818560208601610d61565b610a4081610e24565b840191505092915050565b6000610a5682610cbf565b610a608185610cf9565b9350610a70818560208601610d61565b610a7981610e24565b840191505092915050565b6000610a91602d83610cf9565b91507f536f6c6f207573756172696f73206175746f72697a61646f732070756564656e60008301527f20637265617220746172656173000000000000000000000000000000000000006020830152604082019050919050565b600060a0830160008301518482036000860152610b078282610a12565b91505060208301518482036020860152610b218282610a12565b9150506040830151610b366040860182610b67565b506060830151610b496060860182610961565b506080830151610b5c60808601826109f4565b508091505092915050565b610b7081610d48565b82525050565b610b7f81610d48565b82525050565b6000602082019050610b9a6000830184610970565b92915050565b60006020820190508181036000830152610bba818461097f565b905092915050565b600060a0820190508181036000830152610bdc8188610a4b565b90508181036020830152610bf08187610a4b565b9050610bff6040830186610b76565b610c0c6060830185610970565b610c196080830184610a03565b9695505050505050565b60006020820190508181036000830152610c3c81610a84565b9050919050565b6000604051905081810181811067ffffffffffffffff82111715610c6a57610c69610df5565b5b8060405250919050565b600067ffffffffffffffff821115610c8f57610c8e610df5565b5b601f19601f8301169050602081019050919050565b6000819050602082019050919050565b600081519050919050565b600081519050919050565b6000602082019050919050565b600082825260208201905092915050565b600082825260208201905092915050565b600082825260208201905092915050565b6000610d1582610d28565b9050919050565b60008115159050919050565b600073ffffffffffffffffffffffffffffffffffffffff82169050919050565b6000819050919050565b82818337600083830152505050565b60005b83811015610d7f578082015181840152602081019050610d64565b83811115610d8e576000848401525b50505050565b60006002820490506001821680610dac57607f821691505b60208210811415610dc057610dbf610dc6565b5b50919050565b7f4e487b7100000000000000000000000000000000000000000000000000000000600052602260045260246000fd5b7f4e487b7100000000000000000000000000000000000000000000000000000000600052604160045260246000fd5b6000601f19601f8301169050919050565b610e3e81610d0a565b8114610e4957600080fd5b50565b610e5581610d1c565b8114610e6057600080fd5b50565b610e6c81610d48565b8114610e7757600080fd5b5056fea264697066735822122075cbb027b5dec1368467045ba9a48b52c613d0e51162e17e4eafd506195e065a64736f6c63430008000033",
  "linkReferences": {},
  "deployedLinkReferences": {}
}